{
  "_format": "hh-sol-artifact-1",
  "contractName": "Lock",
  "sourceName": "contracts/Lock.sol",
  "abi": [
    {
      "inputs": [
        {
          "internalType": "address",
          "name": "tokenAddress",
          "type": "address"
        }
      ],
      "stateMutability": "nonpayable",
      "type": "constructor"
    },
    {
      "inputs": [
        {
          "internalType": "address",
          "name": "",
          "type": "address"
        }
      ],
      "name": "deadline",
      "outputs": [
        {
          "internalType": "uint256",
          "name": "",
          "type": "uint256"
        }
      ],
      "stateMutability": "view",
      "type": "function"
    },
    {
      "inputs": [
        {
          "internalType": "uint256",
          "name": "amount",
          "type": "uint256"
        },
        {
          "internalType": "uint256",
          "name": "time",
          "type": "uint256"
        }
      ],
      "name": "lockTokens",
      "outputs": [],
      "stateMutability": "nonpayable",
      "type": "function"
    },
    {
      "inputs": [],
      "name": "lockerCount",
      "outputs": [
        {
          "internalType": "uint256",
          "name": "",
          "type": "uint256"
        }
      ],
      "stateMutability": "view",
      "type": "function"
    },
    {
      "inputs": [
        {
          "internalType": "address",
          "name": "",
          "type": "address"
        }
      ],
      "name": "lockers",
      "outputs": [
        {
          "internalType": "uint256",
          "name": "",
          "type": "uint256"
        }
      ],
      "stateMutability": "view",
      "type": "function"
    },
    {
      "inputs": [],
      "name": "totalLocked",
      "outputs": [
        {
          "internalType": "uint256",
          "name": "",
          "type": "uint256"
        }
      ],
      "stateMutability": "view",
      "type": "function"
    },
    {
      "inputs": [],
      "name": "withdrawTokens",
      "outputs": [],
      "stateMutability": "nonpayable",
      "type": "function"
    }
  ],
  "bytecode": "0x608060405234801561001057600080fd5b50604051610df2380380610df28339818101604052810190610032919061008d565b806000806101000a81548173ffffffffffffffffffffffffffffffffffffffff021916908373ffffffffffffffffffffffffffffffffffffffff160217905550506100ff565b600081519050610087816100e8565b92915050565b60006020828403121561009f57600080fd5b60006100ad84828501610078565b91505092915050565b60006100c1826100c8565b9050919050565b600073ffffffffffffffffffffffffffffffffffffffff82169050919050565b6100f1816100b6565b81146100fc57600080fd5b50565b610ce48061010e6000396000f3fe608060405234801561001057600080fd5b50600436106100625760003560e01c80632c8e7a21146100675780635403b3941461009757806356891412146100c757806389158d8e146100e55780638d8f2adb14610101578063ccd96eb61461010b575b600080fd5b610081600480360381019061007c919061072f565b610129565b60405161008e919061098a565b60405180910390f35b6100b160048036038101906100ac919061072f565b610141565b6040516100be919061098a565b60405180910390f35b6100cf610159565b6040516100dc919061098a565b60405180910390f35b6100ff60048036038101906100fa9190610781565b61015f565b005b6101096103fc565b005b6101136106ea565b604051610120919061098a565b60405180910390f35b60036020528060005260406000206000915090505481565b60046020528060005260406000206000915090505481565b60025481565b600082116101a2576040517f08c379a0000000000000000000000000000000000000000000000000000000008152600401610199906108ea565b60405180910390fd5b600081116101e5576040517f08c379a00000000000000000000000000000000000000000000000000000000081526004016101dc9061096a565b60405180910390fd5b6000600360003373ffffffffffffffffffffffffffffffffffffffff1673ffffffffffffffffffffffffffffffffffffffff1681526020019081526020016000205411610245576001600081548092919061023f90610ab2565b91905055505b816002600082825461025791906109b6565b9250508190555081600360003373ffffffffffffffffffffffffffffffffffffffff1673ffffffffffffffffffffffffffffffffffffffff16815260200190815260200160002060008282546102ad91906109b6565b9250508190555080426102c091906109b6565b600460003373ffffffffffffffffffffffffffffffffffffffff1673ffffffffffffffffffffffffffffffffffffffff1681526020019081526020016000208190555060008060009054906101000a900473ffffffffffffffffffffffffffffffffffffffff1673ffffffffffffffffffffffffffffffffffffffff166323b872dd3330866040518463ffffffff1660e01b81526004016103639392919061088a565b602060405180830381600087803b15801561037d57600080fd5b505af1158015610391573d6000803e3d6000fd5b505050506040513d601f19601f820116820180604052508101906103b59190610758565b9050806103f7576040517f08c379a00000000000000000000000000000000000000000000000000000000081526004016103ee9061092a565b60405180910390fd5b505050565b6000600360003373ffffffffffffffffffffffffffffffffffffffff1673ffffffffffffffffffffffffffffffffffffffff168152602001908152602001600020541161047e576040517f08c379a00000000000000000000000000000000000000000000000000000000081526004016104759061094a565b60405180910390fd5b600460003373ffffffffffffffffffffffffffffffffffffffff1673ffffffffffffffffffffffffffffffffffffffff16815260200190815260200160002054421015610500576040517f08c379a00000000000000000000000000000000000000000000000000000000081526004016104f79061090a565b60405180910390fd5b6000600360003373ffffffffffffffffffffffffffffffffffffffff1673ffffffffffffffffffffffffffffffffffffffff168152602001908152602001600020549050600360003373ffffffffffffffffffffffffffffffffffffffff1673ffffffffffffffffffffffffffffffffffffffff16815260200190815260200160002060009055600460003373ffffffffffffffffffffffffffffffffffffffff1673ffffffffffffffffffffffffffffffffffffffff1681526020019081526020016000206000905580600260008282546105dc9190610a0c565b92505081905550600160008154809291906105f690610a88565b919050555060008054906101000a900473ffffffffffffffffffffffffffffffffffffffff1673ffffffffffffffffffffffffffffffffffffffff1663a9059cbb33836040518363ffffffff1660e01b81526004016106569291906108c1565b602060405180830381600087803b15801561067057600080fd5b505af1158015610684573d6000803e3d6000fd5b505050506040513d601f19601f820116820180604052508101906106a89190610758565b6106e7576040517f08c379a00000000000000000000000000000000000000000000000000000000081526004016106de9061092a565b60405180910390fd5b50565b60015481565b6000813590506106ff81610c69565b92915050565b60008151905061071481610c80565b92915050565b60008135905061072981610c97565b92915050565b60006020828403121561074157600080fd5b600061074f848285016106f0565b91505092915050565b60006020828403121561076a57600080fd5b600061077884828501610705565b91505092915050565b6000806040838503121561079457600080fd5b60006107a28582860161071a565b92505060206107b38582860161071a565b9150509250929050565b6107c681610a40565b82525050565b60006107d96023836109a5565b91506107e482610b2a565b604082019050919050565b60006107fc6015836109a5565b915061080782610b79565b602082019050919050565b600061081f6010836109a5565b915061082a82610ba2565b602082019050919050565b60006108426021836109a5565b915061084d82610bcb565b604082019050919050565b60006108656023836109a5565b915061087082610c1a565b604082019050919050565b61088481610a7e565b82525050565b600060608201905061089f60008301866107bd565b6108ac60208301856107bd565b6108b9604083018461087b565b949350505050565b60006040820190506108d660008301856107bd565b6108e3602083018461087b565b9392505050565b60006020820190508181036000830152610903816107cc565b9050919050565b60006020820190508181036000830152610923816107ef565b9050919050565b6000602082019050818103600083015261094381610812565b9050919050565b6000602082019050818103600083015261096381610835565b9050919050565b6000602082019050818103600083015261098381610858565b9050919050565b600060208201905061099f600083018461087b565b92915050565b600082825260208201905092915050565b60006109c182610a7e565b91506109cc83610a7e565b9250827fffffffffffffffffffffffffffffffffffffffffffffffffffffffffffffffff03821115610a0157610a00610afb565b5b828201905092915050565b6000610a1782610a7e565b9150610a2283610a7e565b925082821015610a3557610a34610afb565b5b828203905092915050565b6000610a4b82610a5e565b9050919050565b60008115159050919050565b600073ffffffffffffffffffffffffffffffffffffffff82169050919050565b6000819050919050565b6000610a9382610a7e565b91506000821415610aa757610aa6610afb565b5b600182039050919050565b6000610abd82610a7e565b91507fffffffffffffffffffffffffffffffffffffffffffffffffffffffffffffffff821415610af057610aef610afb565b5b600182019050919050565b7f4e487b7100000000000000000000000000000000000000000000000000000000600052601160045260246000fd5b7f546f6b656e20616d6f756e74206d75737420626520626967676572207468616e60008201527f20302e0000000000000000000000000000000000000000000000000000000000602082015250565b7f446561646c696e65206973206e6f74206f7665722e0000000000000000000000600082015250565b7f5472616e73666572206661696c65642e00000000000000000000000000000000600082015250565b7f596f7520646f6e2774206861766520616e7920746f6b656e73206c6f636b656460008201527f2e00000000000000000000000000000000000000000000000000000000000000602082015250565b7f4c6f636b696e672074696d65206d75737420626520626967676572207468616e60008201527f20302e0000000000000000000000000000000000000000000000000000000000602082015250565b610c7281610a40565b8114610c7d57600080fd5b50565b610c8981610a52565b8114610c9457600080fd5b50565b610ca081610a7e565b8114610cab57600080fd5b5056fea2646970667358221220619829ef84196f8adad3d846c962e0e4d3159eb07f658e997cc23fab395d0a7664736f6c63430008020033",
  "linkReferences": {},
  "deployedLinkReferences": {}
}